:100000000C9434000C9451000C9451000C94510049
:100010000C9451000C9451000C9451000C9451001C
:100020000C9451000C9451000C9451000C9451000C
:100030000C9451000C9451000C9451000C945100FC
:100040000C9451000C9451000C942C010C94510010
:100050000C9451000C9451000C9451000C945100DC
:100060000C9451000C94510011241FBECFEFD8E026
:10007000DEBFCDBF12E0A0E0B1E0ECEBF4E002C0E7
:1000800005900D92AE30B107D9F722E0AEE0B2E0B4
:1000900001C01D92AB31B207E1F70E94FA010C9446
:1000A0005C020C940000F999FECF92BD81BD8FB324
:1000B00081608FBB80B50895F894F999FECF92BD09
:1000C00081BD60BD8FB384608FBB8FB382608FBBF7
:1000D000789408951F93CF93DF93EC01162FF9992D
:1000E000FECFCE010E945300811721F0612FCE0177
:1000F0000E945C00DF91CF911F910895EF92FF92D3
:100100000F931F93E0ECF0E0A081A083A081A08377
:10011000E1ECF0E0A081A860A083A081A061A083B1
:10012000A0810024169507950794169507950794C6
:10013000102F002D0A2B0083A081F694FE2CEE24B4
:10014000F794E794EA2AE082A2ECB0E01C911C93B9
:100150001C91177F1C931C91220F331F220F331FFA
:10016000220F331F212B2C932C912C939093C5009D
:100170008093C4008C91897F8C9380818B7F808356
:1001800067307105D1F03CF46530710559F0663087
:10019000710569F028C068307105A9F069307105F2
:1001A000C1F021C0E2ECF0E0808180831CC0E2EC71
:1001B000F0E080818260808316C0E2ECF0E0808114
:1001C0008460808310C0E2ECF0E0808186608083F0
:1001D0000AC0E2ECF0E0808186608083E1ECF0E030
:1001E000808184608083E2ECF0E080818F7C80837A
:1001F0004130510541F04230510559F0452B79F419
:100200008081808310C0E2ECF0E080818062808396
:100210000AC0E2ECF0E080818063808304C0E2ECFD
:10022000F0E0808180831F910F91FF90EF900895FF
:100230009091C00095FFFCCF8093C6000895CF93A6
:10024000DF93EC0103C00E9418012196888181117F
:10025000FACFDF91CF9108951F920F920FB60F92B0
:1002600011248F939F93EF93FF938091C6008A3060
:1002700011F08D3061F4E0910E02F0E0EF5EFD4F81
:10028000108210920E0281E08093100211C09091B2
:100290000E02993058F4E0910E0291E09E0F909377
:1002A0000E02F0E0EF5EFD4F808302C010920E025E
:1002B000FF91EF919F918F910F900FBE0F901F9024
:1002C000189580910F0280FF08C085B1826085B9C2
:1002D00080E091E00E941F0107C085B18D7F85B944
:1002E0008AE091E00E941F0180910F0281FF08C007
:1002F00085B1816085B985E191E00E941F0107C049
:1003000085B18E7F85B98FE191E00E941F018091B8
:100310000F0282FF08C08BB180688BB98AE291E03E
:100320000E941F0107C08BB18F778BB984E391E0E6
:100330000E941F0180910F0283FF08C08BB180646F
:100340008BB98FE391E00E941F0107C08BB18F7BB7
:100350008BB989E491E00E941F0180910F0284FF14
:1003600008C08BB180628BB984E591E00E941F01C7
:1003700007C08BB18F7D8BB98EE591E00E941F0184
:1003800080910F0285FF08C08BB180618BB989E62F
:1003900091E00E941F0107C08BB18F7E8BB983E76C
:1003A00091E00E941F0180910F0286FF08C08BB16F
:1003B00088608BB98EE791E00E941F0107C08BB166
:1003C000877F8BB988E891E00E941F0180910F021E
:1003D000882344F48BB184608BB983E991E00E9457
:1003E0001F0108958BB18B7F8BB98EE991E00E943C
:1003F0001F010895EE24E394F12C00E010E020E0CA
:1004000030E040E050E068E070E087E690E00E9475
:100410007E008AB18C6F8AB984B1836084B9789484
:1004200080E090E00E94530080930F020E946101DF
:100430008AEA91E00E941F018EED91E00E941F0167
:10044000809110028823E1F3F89481E192E00E9408
:10045000360280930F02682F80E090E00E946A00CD
:100460001092100278940E946101EACFFC01882763
:100470009927E89421912032E9F3293010F02E30A9
:10048000C8F32B3241F02D3239F4689404C00E9435
:100490005402820F911D219120532A30C0F31EF483
:1004A000909581959F4F08957AE0979F902D879F13
:0C04B000802D910D11240895F894FFCFC9
:1004BC004C454430204F4E2C20004C454430204FAE
:1004CC0046462C20004C454431204F4E2C20004CED
:1004DC00454431204F46462C20004C454432204F99
:1004EC004E2C20004C454432204F46462C20004CCC
:1004FC00454433204F4E2C20004C454433204F466E
:10050C00462C20004C454434204F4E2C20004C45AA
:10051C004434204F46462C20004C454435204F4E49
:10052C002C20004C454435204F46462C20004C4591
:10053C004436204F4E2C20004C454436204F464626
:10054C002C20004C454437204F4E200A0D004C45C2
:10055C004437204F4646200A0D0053656E642061D7
:10056C00206E756D626572207468617420696E20EE
:10057C0062696E61727920666F726D732077686143
:10058C007420796F752077616E74200A0D00466FA8
:10059C0072206578616D706C6520332077696C6CA6
:1005AC00207475726E206F6E20746865206C617398
:0E05BC00742074776F206C656473200A0D0044
:00000001FF
