:100000000C9434000C9451000C9451000C94510049
:100010000C9451000C9451000C9451000C9451001C
:100020000C9451000C9451000C9451000C9451000C
:100030000C9451000C9451000C9451000C945100FC
:100040000C9451000C9451000C9446010C945100F6
:100050000C9451000C9451000C9451000C945100DC
:100060000C9451000C94510011241FBECFEFD8E026
:10007000DEBFCDBF12E0A0E0B1E0E2EBF4E002C0F1
:1000800005900D92AE30B107D9F722E0AEE0B2E0B4
:1000900001C01D92A431B207E1F70E94F2010C9455
:1000A00057020C940000F999FECF92BD81BD8FB329
:1000B00081608FBB80B50895F999FECF92BD81BD57
:1000C00060BD8FB384608FBB8FB382608FBB089598
:1000D0001F93CF93DF93EC01162FF999FECFCE013A
:1000E0000E945300811721F0612FCE010E945C0015
:1000F000DF91CF911F910895EF92FF920F931F937D
:10010000E0ECF0E02081208320812083E1ECF0E02E
:10011000208128602083208120612083208120622B
:10012000208320810024169507950794169507953E
:100130000794102F002D022B00832081F694FE2CB3
:10014000EE24F794E794E22AE082E2ECF0E02081EA
:100150002083208128602083208120839093C50004
:100160008093C40067307105D1F03CF465307105AF
:1001700059F06630710569F028C068307105A9F042
:1001800069307105C1F021C0E2ECF0E0808180832C
:100190001CC0E2ECF0E080818260808316C0E2EC5B
:1001A000F0E080818460808310C0E2ECF0E0808128
:1001B000866080830AC0E2ECF0E080818660808304
:1001C000E1ECF0E08081846080834130510551F0A2
:1001D0004230510569F0452B89F4E2ECF0E0808172
:1001E000808310C0E2ECF0E08081806280830AC0EE
:1001F000E2ECF0E080818063808304C0E2ECF0E018
:10020000808180831F910F91FF90EF9008959091CE
:10021000C00095FFFCCF8093C6000895CF93DF9375
:10022000EC0103C00E940701219688818111FACF59
:10023000DF91CF9108958091C0008823E4F78091E9
:10024000C60008950F931F93CF93DF938C01D62F91
:10025000C0E00BC00E941B018A3079F08D3069F03C
:10026000F801EC0FF11D8083CF5F2C2F30E08D2F34
:1002700090E00197281739076CF3F801EC0FF11D96
:100280001082DF91CF911F910F9108951F920F92CD
:100290000FB60F9211248F9380910F02811103C02A
:1002A00081E080930F028F910F900FBE0F901F90EF
:1002B000189580910E0280FF08C085B1826085B9D3
:1002C00080E091E00E940E0107C085B18D7F85B965
:1002D0008AE091E00E940E0180910E0281FF08C029
:1002E00085B1816085B985E191E00E940E0107C06A
:1002F00085B18E7F85B98FE191E00E940E018091DA
:100300000E0282FF08C08BB180688BB98AE291E04F
:100310000E940E0107C08BB18F778BB984E391E007
:100320000E940E0180910E0283FF08C08BB1806491
:100330008BB98FE391E00E940E0107C08BB18F7BD8
:100340008BB989E491E00E940E0180910E0284FF36
:1003500008C08BB180628BB984E591E00E940E01E8
:1003600007C08BB18F7D8BB98EE591E00E940E01A5
:1003700080910E0285FF08C08BB180618BB989E640
:1003800091E00E940E0107C08BB18F7E8BB983E78D
:1003900091E00E940E0180910E0286FF08C08BB191
:1003A00088608BB98EE791E00E940E0107C08BB187
:1003B000877F8BB988E891E00E940E0180910E0240
:1003C000882344F48BB184608BB983E991E00E9467
:1003D0000E0108958BB18B7F8BB98EE991E00E945D
:1003E0000E010895EE24E394F12C01E010E020E0EA
:1003F00030E040E050E068E070E087E690E00E9486
:100400007C008AB18C6F8AB984B1836084B9789496
:1004100080E090E00E94530080930E020E945901F8
:100420008AEA91E00E940E018EED91E00E940E0199
:1004300080910F028823E1F364E080E192E00E9462
:10044000220180E192E00E94310280930E02682F27
:1004500080E090E00E94680010920F020E94590113
:10046000E7CFFC0188279927E89421912032E9F30E
:10047000293010F02E30C8F32B3241F02D3239F4F0
:10048000689404C00E944F02820F911D2191205355
:100490002A30C0F31EF4909581959F4F08957AE01D
:1004A000979F902D879F802D910D11240895F8948A
:0204B000FFCF7C
:1004B2004C454430204F4E2C20004C454430204FB8
:1004C20046462C20004C454431204F4E2C20004CF7
:1004D200454431204F46462C20004C454432204FA3
:1004E2004E2C20004C454432204F46462C20004CD6
:1004F200454433204F4E2C20004C454433204F4678
:10050200462C20004C454434204F4E2C20004C45B4
:100512004434204F46462C20004C454435204F4E53
:100522002C20004C454435204F46462C20004C459B
:100532004436204F4E2C20004C454436204F464630
:100542002C20004C454437204F4E200A0D004C45CC
:100552004437204F4646200A0D0053656E642061E1
:10056200206E756D626572207468617420696E20F8
:1005720062696E61727920666F726D73207768614D
:100582007420796F752077616E74200A0D00466FB2
:1005920072206578616D706C6520332077696C6CB0
:1005A200207475726E206F6E20746865206C6173A2
:0E05B200742074776F206C656473200A0D004E
:00000001FF
