S0200000416374697669646164342D335F554152545F454550524F4D2E7372656325
S11300000C9444000C9461000C9461000C94610005
S11300100C9461000C9461000C9461000C946100D8
S11300200C9461000C9461000C9461000C946100C8
S11300300C9461000C9461000C9461000C946100B8
S11300400C9461000C9461000C9423010C946100E5
S11300500C9461000C9461000C9461000C94610098
S11300600C9461000C94610044014C0154015C0146
S113007064016C0174017C0192019A01A201AA013C
S1130080B201BA01C201CA0111241FBECFEFD8E0E8
S1130090DEBFCDBF11E0A0E0B1E0EAE1F4E002C0D0
S11300A005900D92AA3CB107D9F721E0AAECB1E082
S11300B001C01D92AC3CB207E1F70E94D2010C943E
S11300C00B020C940000F999FECF92BD81BD8FB351
S11300D081608FBB80B50895EF92FF920F931F93B9
S11300E0E0ECF0E0A081A083A081A083E1ECF0E04B
S11300F0A081A860A083A081A061A083A081002426
S1130100169507950794169507950794102F002DBB
S11301100A2B0083A081F694FE2CEE24F794E79436
S1130120EA2AE082A2ECB0E01C911C931C91177F98
S11301301C931C91220F331F220F331F220F331FD6
S1130140212B2C932C912C939093C5008093C40065
S11301508C91897F8C9380818B7F8083673071053C
S1130160D1F03CF46530710559F06630710569F0E1
S113017028C068307105A9F069307105C1F021C04B
S1130180E2ECF0E0808180831CC0E2ECF0E080814E
S11301908260808316C0E2ECF0E08081846080831A
S11301A010C0E2ECF0E08081866080830AC0E2EC5B
S11301B0F0E0808186608083E1ECF0E080818460FF
S11301C08083E2ECF0E080818F7C808341305105B4
S11301D041F04230510559F0452B79F480818083F8
S11301E010C0E2ECF0E08081806280830AC0E2EC1F
S11301F0F0E080818063808304C0E2ECF0E08081E1
S113020080831F910F91FF90EF9008958091C0001B
S113021088231CF48091C600089580E0089590918D
S1130220C00095FFFCCF8093C6000895CF93DF9361
S1130230EC0103C00E940F01219688818111FACF3D
S1130240DF91CF9108951F920F920FB60F92112450
S11302508F938091CB01811103C081E08093CB0106
S11302608F910F900FBE0F901F901895E091CA01C7
S11302708E2F90E0FC01F197E830F10508F043C0BF
S1130280EC5CFF4F0C94050285B1826085B980E077
S113029091E00E94160137C085B1816085B98BE079
S11302A091E00E9416012FC08BB180688BB986E162
S11302B091E00E94160127C08BB180648BB981E262
S11302C091E00E9416011FC08BB180628BB98CE251
S11302D091E00E94160117C08BB180618BB987E34E
S11302E091E00E9416010FC08BB188608BB982E443
S11302F091E00E94160107C08BB184608BB98DE434
S113030091E00E941601E091CA018E2F90E0FC0159
S1130310E154F109E830F10508F043C0E45CFF4F13
S11303200C94050285B18D7F85B988E591E00E9422
S11303301601089585B18E7F85B984E691E00E9407
S1130340160108958BB18F778BB980E791E00E94F5
S1130350160108958BB18F7B8BB98CE791E00E94D5
S1130360160108958BB18F7D8BB98CE291E00E94C8
S1130370160108958BB18F7E8BB987E391E00E94BB
S1130380160108958BB1877F8BB982E491E00E94B6
S1130390160108958BB18B7F8BB98DE491E00E9497
S11303A016010895EE24E394F12C00E010E020E01F
S11303B030E040E050E068E070E087E690E00E94C2
S11303C06C008AB18C6F8AB984B1836084B97894E3
S11303D080E090E00E9463008093CA010E9436018D
S11303E088E891E00E94160188EA91E00E941601D3
S11303F08091CB018823E1F30E9406018093CA0116
S11304001092CB010E943601F3CFEE0FFF1F05902F
S10D0410F491E02D0994F894FFCF55
S113041A4C454430204F4E200A0D004C45443120AF
S113042A4F4E200A0D004C454432204F4E200A0DEF
S113043A004C454433204F4E200A0D004C454434A9
S113044A204F4E200A0D004C454435204F4E200AB9
S113045A0D004C454436204F4E200A0D004C4544AD
S113046A37204F4E200A0D004C454430204F464653
S113047A200A0D004C454431204F4646200A0D00FF
S113048A4C454432204F4646200A0D004C4544331D
S113049A204F4646200A0D004E756D626572732020
S11304AA312D382077696C6C207475726E206F6EEA
S11304BA204C4544730A0D004C65747465722041DE
S11304CA2D482077696C6C207475726E206F66668D
S10D04DA204C454473200A0D000075
S9030000FC
